:030000000204DD1A
:03000B000204BB31
:03002B000203B01D
:10002E00C00078B10000D8FCD00022C000C0017919
:10003E002D78A6D8FED9FADAF6D001D00022D2B3A6
:10004E0012002EC2B322A2E792B7A2E692B6A2E5A2
:10005E0092B5A2E492B412004C12002EA2E392B713
:10006E00A2E292B6A2E192B5A2E092B412004C22A4
:10007E00D2B2020054C2B2020054C2B374331200A0
:10008E008374331200837432120083742812008337
:10009E00740C1200837401120083C0027A021200E3
:1000AE0039D00222E493600612007EA380F6224429
:1000BE00404480020083C0E0E8C4540F4430120074
:0C00CE007EE8540F443012007ED0E02287
:1000DA00C0E0C0D0C000C001C002E4F538F539F56F
:1000EA003AF53BF53C7A20E533A2E779047830E625
:1000FA0033F608D9FA79057838E636D4F608D9F904
:10010A00DAE5D002D001D000D0D0D0E022C0E0C0E1
:10011A00D0C000C001C002E4F538F539F53AF53B24
:10012A00F53C7A20E533A2E779047830E633F6081D
:10013A00D9FA79057838C0D0E6243320E70224D0EA
:10014A0020E30224FDD0D033F608D9EADAD6D00269
:10015A00D001D000D0D0D0E022C0E0C0D0C000C0D2
:10016A0001C0027A207905C3783CE613C0D030E793
:10017A000224D030E30224FDF618D0D0D9EC790459
:10018A007833E613F618D9FADADBD002D001D000B8
:10019A00D0D0D0E022C0E0C0D0E5302534F530E53B
:1001AA00313535F531E5323536F532E5333537F562
:1001BA0033D0D0D0E022C0E0C0D0C3E5309534F5CA
:1001CA0030E5319535F531E5329536F532E5339539
:1001DA0037F533D0D0D0E022C0E0C0D0C3E53095A7
:1001EA0034E5319535E5329536E53395379200D0C9
:1001FA00D0D0E022C0E0C0D0C3E5349530E53595D3
:10020A0031E5369532E53795339200D0D0D0E022E9
:10021A00C0E0C0D0C200C3E53495307014E535950E
:10022A0031700EE53695327008E53795337002D293
:10023A0000D0D0D0E02212021A2000030201FE22CE
:10024A0012021A2000030201E222C0E0C0F0C0D06C
:10025A00C000C001C002C003E5308534F0A4F8A98B
:10026A00F0E5318534F0A429F9E435F0FAE5308572
:10027A0035F0A429F9E5F03AFAE433FBE53285349E
:10028A00F0A42AFAE5F03BFBE5318535F0A42AFA19
:10029A00E5F03BFBE5308536F0A42AFAE5F03BFBB6
:1002AA00E5338534F0A42BFBE5328535F0A42BFB2E
:1002BA00E5318536F0A42BFBE5308537F0A42BFB1E
:1002CA008B338A3289318830D003D002D001D000F2
:1002DA00D0D0D0F0D0E022C0E0C0D0C000C001C071
:1002EA0002C003C0047C20E4F8F9FAFBC3E530330A
:1002FA00F530E53133F531E53233F532E53333F5AF
:10030A0033E833F8E933F9EA33FAEB33FBC3E89518
:10031A0034E99535EA9536EB95374013E89534F884
:10032A00E99535F9EA9536FAEB9537FB433001DC66
:10033A00BBD004D003D002D001D000D0D0D0E0226C
:10034A0085303485313585323685333722E530C5F7
:10035A0034F530E531C535F531E532C536F532E5E6
:06036A0033C537F5332214
:10037000506572696F6420413A202020202020209F
:1003800000506572696F6420423A202020202020AE
:100390002000506C6179657220312057696E73219D
:1003A00000506C6179657220322057696E732100AC
:1003B000C2CF054332854430854531854632854775
:1003C000337534FD753543753603753700120254A5
:1003D0007534C375359E75362675370012019F85B5
:1003E0003044853145853246853347221203B5C0F6
:1003F00002AA44120039D002C002AA45120039D024
:1004000002C002AA46120039D002C002AA47120056
:1004100039D002227AB079FA78A6D8FED9FADAF67B
:100420002275C80075CB0075CA00D2AD22E47800F1
:1004300079007A007B10E5CD33F5CDE54333F54304
:10044000E838D4F8E939D4F9EA3AD4FADBE822EA10
:10045000540F443012007EE9C4540F443012007E21
:10046000E9540F443012007EE8C4540F44301200A7
:100470007EE8540F443012007E22120414E58954A1
:10048000F04401F5891203B585474BE54B75F00241
:1004900084E5F0B40011758CA9758A9A75F4A97574
:1004A000F29A755501800F758CD4758ACD75F4D488
:1004B00075F2CD755500D2A9D28C22B2913220C5E9
:1004C000FD12042112047A120088D2AFD2A0D2A168
:1004D000754C00754D007551007555002275817F72
:1004E0001204BE1203EC12047AE54CB40006B28C7E
:1004F000054C8002154CC2CA75CC0075CD00754301
:10050000002090FD3090FD7800D2CA2090FD309000
:10051000FDD8F8C2CA85CC3D85CD3E85433FC0E0BD
:10052000740B141200BFD0E012042D12044FE53EEC
:100530002401D475F00A842401D4C0E07403141299
:1005400000BFD0E0C000F81200C4D000B40925E517
:1005500055B40017054DC0E07403141200BFD0E07D
:10056000C000A84D1200C4D0008009E54DB40002BF
:100570008002154DC2CA75CC0075CD0075430020B0
:10058000A6FD30A6FD7800D2CA20A6FD30A6FDD873
:10059000F8C2CA85CC4085CD41854342C0E0740B8A
:1005A000141200BDD0E012042D12044FE540B478BF
:1005B00012E555B4000405518009E551B4000280EC
:1005C000021551C0E07401141200BFD0E0C000A8B1
:1005D0004D1200C4D000C0E07401141200BDD0E080
:1005E000C000A8511200C4D0000204E3B28CE54D53
:1005F000B4101EC0E07401141200BFD0E0C083C06C
:1006000082C0E09003921200B2D0E0D082D083800A
:100610001CC0E07401141200BFD0E0C083C082C0CF
:0D062000E09003A11200B2D0E0D082D083A0
:00000001FF
