:0300000002018F6B
:03000B00020115DA
:03002B00020118B7
:10002E00C00078B10000D8FCD00022C000C0017919
:10003E002D78A6D8FED9FADAF6D001D00022D2B3A6
:10004E0012002EC2B322A2E792B7A2E692B6A2E5A2
:10005E0092B5A2E492B412004C12002EA2E392B713
:10006E00A2E292B6A2E192B5A2E092B412004C22A4
:10007E00D2B2020054C2B2020054C2B374331200A0
:10008E008374331200837432120083742812008337
:10009E00740C1200837401120083C0027A021200E3
:1000AE0039D00222E493600612007EA380F6224429
:1000BE00404480020083C0E0E8C4540F4430120074
:0C00CE007EE8540F443012007ED0E02287
:1000DA00506572696F6420413A2020202020202038
:1000EA0000506572696F6420423A20202020202047
:1000FA002000E58954F04401F589758CA3758A4C72
:10010A0075F4A375F24CD2A9D28C22B29132C2CF25
:10011A000536327AB079FA78A6D8FED9FADAF62212
:10012A0075C80075CB0075CA00D2AD22E478007993
:10013A00007A007B10E5CD33F5CDE53633F536E8A8
:10014A0038D4F8E939D4F9EA3AD4FADBE822EA549D
:10015A000F443012007EE9C4540F443012007EE985
:10016A00540F443012007EE8C4540F443012007E0B
:10017A00E8540F443012007E2212012A1200FC12A7
:10018A000088D2AF2275817F120183D2A0D2A1C08A
:10019A00E07401141200BFD0E0C083C082C0E090B6
:1001AA0000DA1200B2D0E0D082D083C0E074011429
:1001BA001200BDD0E0C083C082C0E09000EB120004
:1001CA00B2D0E0D082D083C2CA75CC0075CD00759A
:1001DA00360020A0FD30A0FD7800D2CA20A0FD3054
:1001EA00A0FDD8F8C2CA85CC3085CD31853632C05B
:1001FA00E0740B141200BFD0E0120136120158C28B
:10020A00CA75CC0075CD0075360020A1FD30A1FD60
:10021A007800D2CA20A1FD30A1FDD8F8C2CA85CC87
:10022A003385CD34853635C0E0740B141200BDD049
:09023A00E0120136120158808E19
:00000001FF
