:030000000208579C
:03000B000204F5F7
:03002B000203DEEF
:10002E00C00078B10000D8FCD00022C000C0017919
:10003E002D78A6D8FED9FADAF6D001D00022D2B3A6
:10004E0012002EC2B322A2E792B7A2E692B6A2E5A2
:10005E0092B5A2E492B412004C12002EA2E392B713
:10006E00A2E292B6A2E192B5A2E092B412004C22A4
:10007E00D2B2020054C2B2020054C2B374331200A0
:10008E008374331200837432120083742812008337
:10009E00740C1200837401120083C0027A021200E3
:1000AE0039D00222E493600612007EA380F6224429
:1000BE00404480020083C0E0E8C4540F4430120074
:0C00CE007EE8540F443012007ED0E02287
:1000DA00C0E0C0D0C000C001C002E4F538F539F56F
:1000EA003AF53BF53C7A20E533A2E779047830E625
:1000FA0033F608D9FA79057838E636D4F608D9F904
:10010A00DAE5D002D001D000D0D0D0E022C0E0C0E1
:10011A00D0C000C001C002E4F538F539F53AF53B24
:10012A00F53C7A20E533A2E779047830E633F6081D
:10013A00D9FA79057838C0D0E6243320E70224D0EA
:10014A0020E30224FDD0D033F608D9EADAD6D00269
:10015A00D001D000D0D0D0E022C0E0C0D0C000C0D2
:10016A0001C0027A207905C3783CE613C0D030E793
:10017A000224D030E30224FDF618D0D0D9EC790459
:10018A007833E613F618D9FADADBD002D001D000B8
:10019A00D0D0D0E022C0E0C0D0E5302534F530E53B
:1001AA00313535F531E5323536F532E5333537F562
:1001BA0033D0D0D0E022C0E0C0D0C3E5309534F5CA
:1001CA0030E5319535F531E5329536F532E5339539
:1001DA0037F533D0D0D0E022C0E0C0D0C3E53095A7
:1001EA0034E5319535E5329536E53395379200D0C9
:1001FA00D0D0E022C0E0C0D0C3E5349530E53595D3
:10020A0031E5369532E53795339200D0D0D0E022E9
:10021A00C0E0C0D0C200C3E53495307014E535950E
:10022A0031700EE53695327008E53795337002D293
:10023A0000D0D0D0E02212021A2000030201FE22CE
:10024A0012021A2000030201E222C0E0C0F0C0D06C
:10025A00C000C001C002C003E5308534F0A4F8A98B
:10026A00F0E5318534F0A429F9E435F0FAE5308572
:10027A0035F0A429F9E5F03AFAE433FBE53285349E
:10028A00F0A42AFAE5F03BFBE5318535F0A42AFA19
:10029A00E5F03BFBE5308536F0A42AFAE5F03BFBB6
:1002AA00E5338534F0A42BFBE5328535F0A42BFB2E
:1002BA00E5318536F0A42BFBE5308537F0A42BFB1E
:1002CA008B338A3289318830D003D002D001D000F2
:1002DA00D0D0D0F0D0E022C0E0C0D0C000C001C071
:1002EA0002C003C0047C20E4F8F9FAFBC3E530330A
:1002FA00F530E53133F531E53233F532E53333F5AF
:10030A0033E833F8E933F9EA33FAEB33FBC3E89518
:10031A0034E99535EA9536EB95374013E89534F884
:10032A00E99535F9EA9536FAEB9537FB433001DC66
:10033A00BBD004D003D002D001D000D0D0D0E0226C
:10034A0085303485313585323685333722E530C5F7
:10035A0034F530E531C535F531E532C536F532E5E6
:06036A0033C537F5332214
:10037000506572696F6420413A202020202020209F
:1003800000506572696F6420423A202020202020AE
:100390002000506C6179657220312057696E73219D
:1003A00000506C6179657220322057696E732100AC
:1003B000506C6179657220332057696E732100504B
:1003C000313A0050323A0050333A00303000303089
:1003D0003030303030303030303030303030C2CFEC
:1003E000054932854A30854B31854C32854D337510
:1003F00034FD753543753603753700120254753474
:10040000C375359E75362675370012019F85304AB3
:1004100085314B85324C85334D221203E3C002AA4D
:100420004A120039D002C002AA4B120039D002C0D1
:1004300002AA4C120039D002C002AA4D120039D0D3
:1004400002227AB079FA78A6D8FED9FADAF62275BD
:10045000C80075CB0075CA00D2AD22E478007900DF
:100460007A007B10E5CD33F5CDE54933F549E83821
:10047000D4F8E939D4F9EA3AD4FADBE822EA540F9D
:10048000443012007EE9C4540F443012007EE95417
:100490000F443012007EE8C4540F443012007EE84E
:1004A000540F443012007E2212041A12041A12044D
:1004B0001A12041A12041AE58954F04401F589123B
:1004C00003E3854D51E55175F00284E5F0B4001168
:1004D000758CA9758A9A75F4A975F29A756301806D
:1004E0000F758CD4758ACD75F4D475F2CD75630013
:1004F000D2A9D28C22B2913220C5FD756669120450
:100500004F1204A8120088D2AFD2A0D2A1D282D2B8
:1005100085755200755300755700755B00755F0057
:10052000756300C0E07401141200BFD0E0C083C046
:1005300082C0E09003BF1200B2D0E0D082D083C06E
:10054000E07403141200BFD0E0C083C082C0E0900A
:1005500003C31200B2D0E0D082D083C0E07405148F
:100560001200BFD0E0C083C082C0E09003C7120079
:10057000B2D0E0D082D08322C0027A64120039D097
:1005800002C0027A64120039D002C0027A641200FA
:1005900039D002C0027A64120039D00222C0027A35
:1005A00032120039D002C28C75F49275F2A4D28C4A
:1005B000C0027A32120039D002C28CC0027A3212E2
:1005C0000039D002C28C75F49275F2A4D28CC002AC
:1005D0007A32120039D002C28CC0027A321200394B
:1005E000D002C28C75F4B675F278D28CC0027A3221
:1005F000120039D002C28CC0027A32120039D00205
:10060000C28C75F4B675F278D28CC0027A321200C0
:1006100039D002C28CC0027A32120039D002C28CA8
:1006200075F4BD75F28AD28CC0027A32120039D0CC
:1006300002C28CC0027A32120039D002C28C75F428
:10064000BD75F28AD28CC0027A32120039D002C251
:100650008CC0027A32120039D002C28C75F4B675A1
:10066000F278D28CC0027A32120039D002C0027AFB
:1006700032120039D002C28CC0027A32120039D054
:1006800002C28C75F4AD75F2B8D28CC0027A321207
:100690000039D002C28CC0027A32120039D002C2B4
:1006A0008C75F4AD75F2B8D28CC0027A3212003972
:1006B000D002C28CC0027A32120039D002C28C75CC
:1006C000F4A975F29AD28CC0027A32120039D002A3
:1006D000C28CC0027A32120039D002C28C75F4A9E1
:1006E00075F29AD28CC0027A32120039D002C28CD2
:1006F000C0027A32120039D002C28C75F49E75F2B3
:10070000ECD28CC0027A32120039D002C28CC00204
:100710007A32120039D002C28C75F49E75F2ECD296
:100720008CC0027A32120039D002C28CC0027A32F6
:10073000120039D002C28C75F49275F2A4D28CC02A
:10074000027A32120039D002C0027A32120039D055
:1007500002C28C22120578C28C75F49275F2A4D272
:100760008C120578C28C120578C28C75F49275F2E1
:10077000A4D28C120578C28C120578C28C75F4B69E
:1007800075F278D28C120578C28C120578C28C75FD
:10079000F4B675F278D28C120578C28C120578C244
:1007A0008C75F4BD75F28AD28C120578C28C120554
:1007B00078C28C75F4BD75F28AD28C120578C28C21
:1007C000120578C28C75F4B675F278D28C12057861
:1007D000120578C28C120578C28C75F4AD75F2B82A
:1007E000D28C120578C28C120578C28C75F4AD7566
:1007F000F2B8D28C120578C28C120578C28C75F4CE
:10080000A975F29AD28C120578C28C120578C28C26
:1008100075F4A975F29AD28C120578C28C120578FB
:10082000C28C75F49E75F2ECD28C120578C28C12D3
:100830000578C28C75F49E75F2ECD28C120578C2E4
:100840008C120578C28C75F49275F2A4D28C1205C4
:1008500078120578C28C2275817F1204F8E553B4B2
:100860000403020B12E557B40403020B69E55BB401
:100870000403020BC0E55FB40403020B10E4C2CA18
:1008800075CC0075CD007549002090FD3090FD7845
:1008900000D2CA2090FD3090FDD8F8C2CA85CC3D68
:1008A00085CD3E85493FE53E75F001842414D4C0D2
:1008B000E0740A141200BFD0E0C000F81200C4D0E7
:1008C00000B4534CE563B4001D0553C0E07401143B
:1008D0001200BFD0E0C000A8531200C4D000B28CF8
:1008E0001204A8020AC1E553B40008B28C1204A88D
:1008F000020AC11553C0E07401141200BFD0E0C059
:1009000000A8531200C4D000B28C1204A8020AC17D
:10091000C2CA75CC0075CD0075490020A6FD30A671
:10092000FD7800D2CA20A6FD30A6FDD8F8C2CA853F
:10093000CC4085CD41854942E54175F002842423B0
:10094000D4C0E0740D141200BFD0E0C000F8120053
:10095000C4D000B4534CE563B4001D0557C0E07427
:1009600005141200BFD0E0C000A8571200C4D00088
:10097000B28C1204A8020AC1E557B40008B28C1266
:1009800004A8020AC11557C0E07405141200BFD0B4
:10099000E0C000A8571200C4D000B28C1204A80214
:1009A0000AC1C2CA75CC0075CD007549002082FD10
:1009B0003082FD7800D2CA2082FD3082FDD8F8C294
:1009C000CA85CC4385CD44854945E54475F002840C
:1009D000240AD4C0E0740A141200BDD0E0C000F8AC
:1009E0001200C4D000B4354CE563B4001D055BC0F3
:1009F000E07401141200BDD0E0C000A85B1200C476
:100A0000D000B28C1204A8020AC1E55BB40008B29F
:100A10008C1204A8020AC1155BC0E0740114120014
:100A2000BDD0E0C000A85B1200C4D000B28C12049C
:100A3000A8020AC1C2CA75CC0075CD007549002054
:100A400085FD3085FD7800D2CA2085FD3085FDD832
:100A5000F8C2CA85CC4685CD47854948E54775F03B
:100A600002842414D4C0E0740D141200BDD0E0C080
:100A700000F81200C4D000B44547E563B4001C057B
:100A80005FC0E07405141200BDD0E0C000A85F1282
:100A900000C4D000B28C1204A88026E55FB4000721
:100AA000B28C1204A8808D155FC0E074051412008A
:100AB000BDD0E0C000A85F1200C4D000B28C120408
:100AC000A8C0E07401141200BFD0E0C000A8531207
:100AD00000C4D000C0E07405141200BFD0E0C00014
:100AE000A8571200C4D000C0E07401141200BDD099
:100AF000E0C000A85B1200C4D000C0E0740514126E
:100B000000BDD0E0C000A85F1200C4D00002085DA4
:100B1000B28CC0E0740F141200BFD0E0C083C0825A
:100B2000C0E09003CB1200B2D0E0D082D083C0E00E
:100B30007401141200BDD0E0C083C082C0E09003F5
:100B4000CE1200B2D0E0D082D083C0E07401141283
:100B500000BFD0E0C083C082C0E09003921200B218
:100B6000D0E0D082D083020C14C0E0740F141200C5
:100B7000BFD0E0C083C082C0E09003CB1200B2D0EF
:100B8000E0D082D083C0E07401141200BDD0E0C078
:100B900083C082C0E09003CE1200B2D0E0D082D0F9
:100BA00083C0E07401141200BFD0E0C083C082C0D3
:100BB000E09003A11200B2D0E0D082D083020C14E6
:100BC000C0E0740F141200BFD0E0C083C082C0E048
:100BD0009003CB1200B2D0E0D082D083C0E0740189
:100BE000141200BDD0E0C083C082C0E09003CE12DA
:100BF00000B2D0E0D082D083C0E07401141200BFF4
:100C0000D0E0C083C082C0E09003B01200B2D0E058
:0A0C1000D082D08312075412059D14
:00000001FF
