:030000000201708A
:03002B000200FCD4
:10002E00C00078B10000D8FCD00022C000C0017919
:10003E002D78A6D8FED9FADAF6D001D00022D2B3A6
:10004E0012002EC2B322A2E792B7A2E692B6A2E5A2
:10005E0092B5A2E492B412004C12002EA2E392B713
:10006E00A2E292B6A2E192B5A2E092B412004C22A4
:10007E00D2B2020054C2B2020054C2B374331200A0
:10008E008374331200837432120083742812008337
:10009E00740C1200837401120083C0027A021200E3
:1000AE0039D00222E493600612007EA380F6224429
:1000BE00404480020083C0E0E8C4540F4430120074
:0C00CE007EE8540F443012007ED0E02287
:1000DA00506572696F6420413A2020202020202038
:1000EA0000506572696F6420423A20202020202047
:1000FA002000C2CF0536327AB079FA78A6D8FED96E
:10010A00FADAF62275C80075CB0075CA00D2AD229C
:10011A00E4780079007A007B10E5CD33F5CDE53639
:10012A0033F536E838D4F8E939D4F9EA3AD4FADBBF
:10013A00E822EA540F443012007EE9C4540F4430D6
:10014A0012007EE9540F443012007EE8C4540F4472
:10015A003012007EE8540F443012007E2212010E43
:10016A00120088D2AF2275817F120167D2A0D2A174
:10017A00C0E07401141200BFD0E0C083C082C0E0A6
:10018A009000DA1200B2D0E0D082D083C0E07401CD
:10019A00141200BDD0E0C083C082C0E09000EB1210
:1001AA0000B2D0E0D082D083C2CA75CC0075CD002F
:1001BA0075360020A0FD30A0FD7800D2CA20A0FD2F
:1001CA0030A0FDD8F8C2CA85CC3085CD318536320B
:1001DA00C0E0740B141200BFD0E012011A12013CE5
:1001EA00C2CA75CC0075CD0075360020A1FD30A1BC
:1001FA00FD7800D2CA20A1FD30A1FDD8F8C2CA8577
:10020A00CC3385CD34853635C0E0740B141200BD6D
:0A021A00D0E012011A12013C808EA0
:00000001FF
