:030000000203A850
:03000B0002038B62
:10000E00C0E0C0D0C000C001C002E4F538F539F53B
:10001E003AF53BF53C7A20E533A2E779047830E6F1
:10002E0033F608D9FA79057838E636D4F608D9F9D0
:10003E00DAE5D002D001D000D0D0D0E022C0E0C0AE
:10004E00D0C000C001C002E4F538F539F53AF53BF1
:10005E00F53C7A20E533A2E779047830E633F608EA
:10006E00D9FA79057838C0D0E6243320E70224D0B7
:10007E0020E30224FDD0D033F608D9EADAD6D00236
:10008E00D001D000D0D0D0E022C0E0C0D0C000C09F
:10009E0001C0027A207905C3783CE613C0D030E760
:1000AE000224D030E30224FDF618D0D0D9EC790426
:1000BE007833E613F618D9FADADBD002D001D00085
:1000CE00D0D0D0E022C0E0C0D0E5302534F530E508
:1000DE00313535F531E5323536F532E5333537F52F
:1000EE0033D0D0D0E022C0E0C0D0C3E5309534F597
:1000FE0030E5319535F531E5329536F532E5339506
:10010E0037F533D0D0D0E022C0E0C0D0C3E5309573
:10011E0034E5319535E5329536E53395379200D095
:10012E00D0D0E022C0E0C0D0C3E5349530E535959F
:10013E0031E5369532E53795339200D0D0D0E022B6
:10014E00C0E0C0D0C200C3E53495307014E53595DB
:10015E0031700EE53695327008E53795337002D260
:10016E0000D0D0D0E02212014E2000030201322234
:10017E0012014E20000302011622C0E0C0F0C0D0D2
:10018E00C000C001C002C003E5308534F0A4F8A958
:10019E00F0E5318534F0A429F9E435F0FAE530853F
:1001AE0035F0A429F9E5F03AFAE433FBE53285346B
:1001BE00F0A42AFAE5F03BFBE5318535F0A42AFAE6
:1001CE00E5F03BFBE5308536F0A42AFAE5F03BFB83
:1001DE00E5338534F0A42BFBE5328535F0A42BFBFB
:1001EE00E5318536F0A42BFBE5308537F0A42BFBEB
:1001FE008B338A3289318830D003D002D001D000BF
:10020E00D0D0D0F0D0E022C0E0C0D0C000C001C03D
:10021E0002C003C0047C20E4F8F9FAFBC3E53033D6
:10022E00F530E53133F531E53233F532E53333F57B
:10023E0033E833F8E933F9EA33FAEB33FBC3E895E5
:10024E0034E99535EA9536EB95374013E89534F851
:10025E00E99535F9EA9536FAEB9537FB433001DC33
:10026E00BBD004D003D002D001D000D0D0D0E02239
:10027E0085303485313585323685333722E530C5C4
:10028E0034F530E531C535F531E532C536F532E5B3
:06029E0033C537F53322E1
:1002A400C00078B10000D8FCD00022C000C00179A1
:1002B4002D78A6D8FED9FADAF6D001D00022D2B32E
:1002C4001202A4C2B322A2E792B7A2E692B6A2E5B2
:1002D40092B5A2E492B41202C21202A4A2E392B7AB
:1002E400A2E292B6A2E192B5A2E092B41202C222B4
:1002F400D2B20202CAC2B20202CAC2B37433120236
:10030400F974331202F974321202F974281202F9E0
:10031400740C1202F974011202F9C0027A02120278
:10032400AFD00222E49360061202F4A380F62244C2
:100334004044800202F9C0E0E8C4540F4430120281
:10034400F4E8540F44301202F4D0E02248656C6C97
:100354006F5F576F726C64202020202000202020C3
:100364002020202020202020202020202000E5897B
:1003740054F04401F589758CEA758AE875F4EA75D8
:10038400F2E8D2A9D28C22B29132C0027A8B120244
:10039400AFD002DAF522C28CC0027A321202AFD098
:1003A40002D28C2275817F120372D2AFC0E0740135
:1003B40014120333D0E0C083C082C0E09003501213
:1003C4000328D0E0D082D083C0E074011412033536
:1003D400D0E0C083C082C0E0900361120328D0E063
:1003E400D082D08375307075310375320075330057
:1003F400753401753500753600753700120188753E
:1004040034017535007536007537001202157534E0
:100414000075358075365175370112028B1202153D
:1004240075340075350075360175370012028B126C
:1004340000F48530F28531F4D28C7A0412038EC232
:100444008CC0027A141202AFD00275307075310379
:1004540075320075330075340175350075360075D5
:10046400370012018875340175350075360075370B
:1004740000120215753400753580753651753701D3
:1004840012028B120215753400753500753601752C
:10049400370012028B1200F48530F28531F4D28CCD
:1004A4007A0412038EC28CC0027A141202AFD002F4
:1004B400753070753103753200753300753403750A
:1004C40035007536007537001201887534027535AC
:1004D40000753600753700120215753400753580C5
:1004E40075365175370112028B1202157534007579
:1004F400350075360175370012028B1200F4853011
:10050400F28531F4D28C7A0412038EC28CC0027A42
:10051400141202AFD0027530707531037532007554
:1005240033007534037535007536007537001201D4
:10053400887534027535007536007537001202155A
:1005440075340075358075365175370112028B127A
:1005540002157534007535007536017537001202C1
:100564008B1200F48530F28531F4D28C7A041203B4
:100574008EC28CC0027A141202AFD002753070752C
:1005840031037532007533007534057535007536E1
:10059400007537001201887534037535007536000F
:1005A400753700120215753400753580753651752E
:1005B400370112028B120215753400753500753639
:1005C4000175370012028B1200F48530F28531F484
:1005D400D28C7A0412038EC28CC0027A141202AF37
:1005E400D00275307075310375320075330075347F
:1005F40005753500753600753700120188753403AA
:10060400753500753600753700120215753400759E
:10061400358075365175370112028B120215753407
:100624000075350075360175370012028B1200F41F
:100634008530F28531F4D28C7A0412038EC28CC0D8
:10064400027A141202AFD00275307075310375321C
:100654000075330075340375350075360075370041
:10066400120188753402753500753600753700122D
:1006740002157534007535807536517537011202CF
:100684008B12021575340075350075360175370007
:1006940012028B1200F48530F28531F4D28C7A0880
:1006A40012038EC28CC0027A141202AFD0027530CB
:1006B4007075310375320075330075340475350077
:1006C4007536007537001201887534037535007569
:1006D400360075370012021575340075358075368D
:1006E4005175370112028B120215753400753500ED
:1006F40075360175370012028B1200F48530F285CD
:1007040031F4D28C7A0412038EC28CC0027A141291
:1007140002AFD00275307075310375320075330045
:100724007534047535007536007537001201887507
:1007340034037535007536007537001202157534AB
:100744000075358075365175370112028B1202150A
:1007540075340075350075360175370012028B1239
:1007640000F48530F28531F4D28C7A0412038EC2FF
:100774008CC0027A141202AFD00275307075310346
:10078400753200753300753405753500753600759E
:1007940037001201887534047535007536007537D5
:1007A40000120215753400753580753651753701A0
:1007B40012028B12021575340075350075360175F9
:1007C400370012028B1200F48530F28531F4D28C9A
:1007D4007A0412038EC28CC0027A141202AFD002C1
:1007E40075307075310375320075330075340575D5
:1007F4003500753600753700120188753404753577
:100804000075360075370012021575340075358091
:1008140075365175370112028B1202157534007545
:10082400350075360175370012028B1200F48530DD
:10083400F28531F4D28C7A0412038EC28CC0027A0F
:10084400141202AFD0027530707531037532007521
:10085400330075340975350075360075370012019B
:100864008875340875350075360075370012021521
:1008740075340075358075365175370112028B1247
:10088400021575340075350075360175370012028E
:100894008B1200F48530F28531F4D28C7A04120381
:1008A4008EC28CC0027A141202AFD00275307075F9
:1008B40031037532007533007534097535007536AA
:1008C40000753700120188753408753500753600D7
:1008D40075370012021575340075358075365175FB
:1008E400370112028B120215753400753500753606
:1008F4000175370012028B1200F48530F28531F451
:10090400D28C7A0412038EC28CC0027A141202AF03
:10091400D00275307075310375320075330075344B
:10092400017535007536007537001201887534017C
:10093400753500753600753700120215753400756B
:10094400358075365175370112028B1202157534D4
:100954000075350075360175370012028B1200F4EC
:100964008530F28531F4D28C7A0812038EC28CC0A1
:10097400027A141202AFD0027530707531037532E9
:10098400007533007534037535007536007537000E
:1009940012018875340275350075360075370012FA
:1009A400021575340075358075365175370112029C
:1009B4008B120215753400753500753601753700D4
:1009C40012028B1200F48530F28531F4D28C7A0451
:1009D40012038EC28CC0027A141202AFD002753098
:1009E4007075310375320075330075340375350045
:1009F4007536007537001201887534027535007537
:100A04003600753700120215753400753580753659
:100A14005175370112028B120215753400753500B9
:100A240075360175370012028B1200F48530F28599
:100A340031F4D28C7A0412038EC28CC0027A14125E
:100A440002AFD00275307075310375320075330012
:100A540075340475350075360075370012018875D4
:100A64003403753500753600753700120215753478
:100A74000075358075365175370112028B120215D7
:100A840075340075350075360175370012028B1206
:100A940000F48530F28531F4D28C7A0412038EC2CC
:100AA4008CC0027A141202AFD00275307075310313
:100AB400753200753300753404753500753600756C
:100AC40037001201887534037535007536007537A3
:100AD400001202157534007535807536517537016D
:100AE40012028B12021575340075350075360175C6
:100AF400370012028B1200F48530F28531F4D28C67
:100B04007A0412038EC28CC0027A141202AFD0028D
:100B140075307075310375320075330075340575A1
:100B24003500753600753700120188753404753543
:100B3400007536007537001202157534007535805E
:100B440075365175370112028B1202157534007512
:100B5400350075360175370012028B1200F48530AA
:100B6400F28531F4D28C7A0412038EC28CC0027ADC
:100B7400141202AFD00275307075310375320075EE
:100B8400330075340575350075360075370012016C
:100B940088753404753500753600753700120215F2
:100BA40075340075358075365175370112028B1214
:100BB400021575340075350075360175370012025B
:100BC4008B1200F48530F28531F4D28C7A0412034E
:100BD4008EC28CC0027A141202AFD00275307075C6
:100BE4003103753200753300753409753500753677
:100BF40000753700120188753408753500753600A4
:100C040075370012021575340075358075365175C7
:100C1400370112028B1202157534007535007536D2
:100C24000175370012028B1200F48530F28531F41D
:100C3400D28C7A0812038EC28CC0027A141202AFCC
:100C4400D002753070753103753200753300753418
:100C54000375350075360075370012018875340246
:100C64007535007536007537001202157534007538
:100C7400358075365175370112028B1202157534A1
:100C84000075350075360175370012028B1200F4B9
:100C94008530F28531F4D28C7A0412038EC28CC072
:100CA400027A141202AFD0027530707531037532B6
:100CB40000753300753403753500753600753700DB
:100CC40012018875340275350075360075370012C7
:100CD4000215753400753580753651753701120269
:100CE4008B120215753400753500753601753700A1
:100CF40012028B1200F48530F28531F4D28C7A041E
:100D040012038EC28CC0027A141202AFD002753064
:100D14007075310375320075330075340475350010
:100D24007536007537001201887534037535007502
:100D34003600753700120215753400753580753626
:100D44005175370112028B12021575340075350086
:100D540075360175370012028B1200F48530F28566
:100D640031F4D28C7A0412038EC28CC0027A14122B
:100D740002AFD002753070753103753200753300DF
:100D840075340475350075360075370012018875A1
:100D94003403753500753600753700120215753445
:100DA4000075358075365175370112028B120215A4
:100DB40075340075350075360175370012028B12D3
:100DC40000F48530F28531F4D28C7A0412038EC299
:100DD4008CC0027A141202AFD002753070753103E0
:100DE4007532007533007534057535007536007538
:100DF400370012018875340475350075360075376F
:100E04000012021575340075358075365175370139
:100E140012028B1202157534007535007536017592
:100E2400370012028B1200F48530F28531F4D28C33
:100E34007A0412038EC28CC0027A141202AFD0025A
:100E4400753070753103753200753300753405756E
:100E54003500753600753700120188753404753510
:100E6400007536007537001202157534007535802B
:100E740075365175370112028B12021575340075DF
:100E8400350075360175370012028B1200F4853077
:100E9400F28531F4D28C7A0412038EC28CC0027AA9
:100EA400141202AFD00275307075310375320075BB
:100EB4003300753409753500753600753700120135
:100EC40088753408753500753600753700120215BB
:100ED40075340075358075365175370112028B12E1
:100EE4000215753400753500753601753700120228
:100EF4008B1200F48530F28531F4D28C7A08120317
:100F04008EC28CC0027A141202AFD0027530707592
:100F1400310375320075330075340175350075364B
:100F24000075370012018875340175350075360077
:100F34007537001202157534007535807536517594
:100F4400370112028B12021575340075350075369F
:100F54000175370012028B1200F48530F28531F4EA
:100F6400D28C7A0412038EC28CC0027A141202AF9D
:100F7400D0027530707531037532007533007534E5
:100F84000175350075360075370012018875340116
:100F94007535007536007537001202157534007505
:100FA400358075365175370112028B12021575346E
:100FB4000075350075360175370012028B1200F486
:100FC4008530F28531F4D28C7A0412038EC28CC03F
:100FD400027A141202AFD002753070753103753283
:100FE40000753300753403753500753600753700A8
:100FF4001201887534027535007536007537001294
:101004000215753400753580753651753701120235
:101014008B1202157534007535007536017537006D
:1010240012028B1200F48530F28531F4D28C7A04EA
:1010340012038EC28CC0027A141202AFD002753031
:1010440070753103753200753300753403753500DE
:1010540075360075370012018875340275350075D0
:1010640036007537001202157534007535807536F3
:101074005175370112028B12021575340075350053
:1010840075360175370012028B1200F48530F28533
:1010940031F4D28C7A0412038EC28CC0027A1412F8
:1010A40002AFD002753070753103753200753300AC
:1010B400753405753500753600753700120188756D
:1010C4003403753500753600753700120215753412
:1010D4000075358075365175370112028B12021571
:1010E40075340075350075360175370012028B12A0
:1010F40000F48530F28531F4D28C7A0412038EC266
:101104008CC0027A141202AFD002753070753103AC
:101114007532007533007534057535007536007504
:10112400370012018875340375350075360075373C
:101134000012021575340075358075365175370106
:1011440012028B120215753400753500753601755F
:10115400370012028B1200F48530F28531F4D28C00
:101164007A0412038EC28CC0027A141202AFD00227
:10117400753070753103753200753300753403753D
:1011840035007536007537001201887534027535DF
:1011940000753600753700120215753400753580F8
:1011A40075365175370112028B12021575340075AC
:1011B400350075360175370012028B1200F4853044
:1011C400F28531F4D28C7A0812038EC28CC0027A72
:1011D400141202AFD0027530707531037532007588
:1011E4003300753404753500753600753700120107
:1011F400887534037535007536007537001202158D
:1012040075340075358075365175370112028B12AD
:1012140002157534007535007536017537001202F4
:101224008B1200F48530F28531F4D28C7A041203E7
:101234008EC28CC0027A141202AFD002753070755F
:101244003103753200753300753404753500753615
:101254000075370012018875340375350075360042
:101264007537001202157534007535807536517561
:10127400370112028B12021575340075350075366C
:101284000175370012028B1200F48530F28531F4B7
:10129400D28C7A0412038EC28CC0027A141202AF6A
:1012A400D0027530707531037532007533007534B2
:1012B40005753500753600753700120188753404DC
:1012C40075350075360075370012021575340075D2
:1012D400358075365175370112028B12021575343B
:1012E4000075350075360175370012028B1200F453
:1012F4008530F28531F4D28C7A0412038EC28CC00C
:10130400027A141202AFD00275307075310375324F
:101314000075330075340575350075360075370072
:10132400120188753404753500753600753700125E
:101334000215753400753580753651753701120202
:101344008B1202157534007535007536017537003A
:1013540012028B1200F48530F28531F4D28C7A04B7
:1013640012038EC28CC0027A141202AFD0027530FE
:1013740070753103753200753300753409753500A5
:101384007536007537001201887534087535007597
:1013940036007537001202157534007535807536C0
:1013A4005175370112028B12021575340075350020
:1013B40075360175370012028B1200F48530F28500
:1013C40031F4D28C7A0412038EC28CC0027A1412C5
:1013D40002AFD00275307075310375320075330079
:1013E4007534097535007536007537001201887536
:1013F40034087535007536007537001202157534DA
:101404000075358075365175370112028B1202153D
:1014140075340075350075360175370012028B126C
:1014240000F48530F28531F4D28C7A0412038EC232
:101434008CC0027A141202AFD00275307075310379
:1014440075320075330075340175350075360075D5
:10145400370012018875340175350075360075370B
:1014640000120215753400753580753651753701D3
:1014740012028B120215753400753500753601752C
:10148400370012028B1200F48530F28531F4D28CCD
:101494007A0812038EC28CC0027A141202AFD002F0
:1014A4000203E812039AC28C75F4BD75F28AD28CD9
:1014B40012039AC28C12039AC28C75F4BD75F28A17
:1014C400D28C12039AC28C12039AC28C75F4B6752C
:1014D400F278D28C12039A12039AC28C12039AC223
:1014E4008C75F4AD75F2B8D28C12039AC28C1203C7
:1014F4009AC28C75F4AD75F2B8D28C12039AC28C70
:1015040012039AC28C75F4A975F29AD28C12039ABA
:10151400C28C12039AC28C75F4A975F29AD28C12F9
:10152400039AC28C12039AC28C75F49E75F2ECD2A3
:101534008C12039AC28C12039AC28C75F49E75F2B3
:10154400ECD28C12039AC28C12039AC28C75F49D4D
:1015540075F2D2D28C12039A12039AC28C0203E857
:00000001FF
