:03000000020037C4
:10000B00020027E58954F04401F589758CEA758A5D
:10001B006175F4EA75F261D2A9D28C22B291327A6F
:10002B005979FA78A6D8FED9FADAF62275817F12B9
:10003B00000ED2AF12002AC28C75F49275F2A4D2C4
:10004B008C12002AC28C12002AC28C75F49275F2A3
:10005B00A4D28C12002AC28C12002AC28C75F4B660
:10006B0075F278D28C12002AC28C12002AC28C75BF
:10007B00F4B675F278D28C12002AC28C12002AC206
:10008B008C75F4BD75F28AD28C12002AC28C1200C8
:10009B002AC28C75F4BD75F28AD28C12002AC28CDE
:1000AB0012002AC28C75F4B675F278D28C12002A23
:1000BB0012002AC28C12002AC28C75F4AD75F2B8EC
:1000CB00D28C12002AC28C12002AC28C75F4AD7528
:1000DB00F2B8D28C12002AC28C12002AC28C75F490
:1000EB00A975F29AD28C12002AC28C12002AC28CE9
:1000FB0075F4A975F29AD28C12002AC28C12002ABE
:10010B00C28C75F49E75F2ECD28C12002AC28C1242
:10011B00002AC28C75F49E75F2ECD28C12002AC2A6
:10012B008C12002AC28C75F49275F2A4D28C120038
:09013B002A12002AC28C02003FC6
:00000001FF
